{
  "transactions": [
    {
      "hash": "0xf788cb265a3314297b9b49a204f287e15e82984d922d81b23618a610a15fe7ed",
      "transactionType": "CREATE",
      "contractName": "PoolModifyLiquidityTest",
      "contractAddress": "0x3d1fa1fbaab354d40df7d3e8a74fb8e443919247",
      "function": null,
      "arguments": [
        "0x360E68faCcca8cA495c1B759Fd9EEe466db9FB32"
      ],
      "transaction": {
        "from": "0x4965096bd8545b903c85530061bcc184c840306c",
        "to": null,
        "gas": "0x1ae5e8",
        "value": "0x0",
        "input": "0x60a034607a57601f61183538819003918201601f19168301916001600160401b03831184841017607e57808492602094604052833981010312607a57516001600160a01b0381168103607a576080526040516117a29081610093823960805181818160b50152818161099001528181610ac101526111390152f35b5f80fd5b634e487b7160e01b5f52604160045260245ffdfe60806040526004361015610011575f80fd5b5f3560e01c80630a5b11e414610ae5578063481c6a7514610a775780635a6bcfda14610790576391dd734614610045575f80fd5b346107795760207ffffffffffffffffffffffffffffffffffffffffffffffffffffffffffffffffc3601126107795760043567ffffffffffffffff8111610779573660238201121561077957806004013567ffffffffffffffff81116107795781016024810190368211610779577f00000000000000000000000000000000000000000000000000000000000000009273ffffffffffffffffffffffffffffffffffffffff841690813303610779576020818403126107795760248101359067ffffffffffffffff82116107795701906101a082840312610779576040519161012d83610c27565b61013960248201610ce9565b835260a07fffffffffffffffffffffffffffffffffffffffffffffffffffffffffffffffe08286030112610779576040519361017485610c70565b61018060448301610ce9565b855261018e60648301610ce9565b6020860152608482013562ffffff811681036107795760408601526101b560a48301610d0a565b606086015260c482013573ffffffffffffffffffffffffffffffffffffffff81168103610779577fffffffffffffffffffffffffffffffffffffffffffffffffffffffffffffff1c83608093602493858a01526020880198895203010112610779576040519561022487610c8c565b61023060e48301610d0a565b875261023f6101048301610d0a565b6020880152610124820135604088015261014482013560608801526040840196875261016482013567ffffffffffffffff81116107795761039f96602461028892850101610e8a565b916060850192835260406102b36101a46102a56101848501610ed0565b936080890194855201610ed0565b9360a087019485526102e060a08951208b51805160020b6060602083015160020b92015192309089610f80565b5050956103715f8c6103b38c519151955187519e8f97889687957f5a6bcfda000000000000000000000000000000000000000000000000000000008752600487019073ffffffffffffffffffffffffffffffffffffffff6080809282815116855282602082015116602086015262ffffff6040820151166040860152606081015160020b6060860152015116910152565b8051600290810b60a48701526020820151900b60c4860152604081015160e486015260600151610104850152565b610140610124840152610144830190610edd565b03925af1968715610785575f9761074d575b506103eb60a08751208951805160020b6060602083015160020b92015192309087610f80565b50509061042a73ffffffffffffffffffffffffffffffffffffffff88515116309073ffffffffffffffffffffffffffffffffffffffff89511690611114565b939150506fffffffffffffffffffffffffffffffff61047e73ffffffffffffffffffffffffffffffffffffffff60208b51015116309073ffffffffffffffffffffffffffffffffffffffff8b511690611114565b9891505016600f0b9060408b510151915f8382019384129112908015821691151617610720576fffffffffffffffffffffffffffffffff16600f0b036106c2576040610548995101515f81125f1461067d57505f82138015610674575b6104e490610f20565b5f8212801561066b575b6104f89015610f20565b5f821261061d575b5f85126105ca575b505f8113610583575b505f831361054c575b868660405190602082015260208152610534604082610ca8565b604051918291602083526020830190610edd565b0390f35b73ffffffffffffffffffffffffffffffffffffffff80602061057997510151169451169151151593611545565b5f8080808061051a565b6105c49073ffffffffffffffffffffffffffffffffffffffff875151169073ffffffffffffffffffffffffffffffffffffffff875116848651151593611545565b5f610511565b6106179073ffffffffffffffffffffffffffffffffffffffff602089510151169073ffffffffffffffffffffffffffffffffffffffff8851168561060d89610f54565b925115159361120d565b5f610508565b61066673ffffffffffffffffffffffffffffffffffffffff8851511673ffffffffffffffffffffffffffffffffffffffff88511661065a85610f54565b9086855115159361120d565b610500565b505f85126104ee565b505f85136104db565b5f12156104f8575f821280156106b9575b61069790610f20565b5f821380156106b0575b6106ab9015610f20565b6104f8565b505f85136106a1565b505f851261068e565b60646040517f08c379a000000000000000000000000000000000000000000000000000000000815260206004820152601a60248201527f6c6971756964697479206368616e676520696e636f72726563740000000000006044820152fd5b7f4e487b71000000000000000000000000000000000000000000000000000000005f52601160045260245ffd5b9096506040813d60401161077d575b8161076960409383610ca8565b810103126107795751955f6103c5565b5f80fd5b3d915061075c565b6040513d5f823e3d90fd5b6101407ffffffffffffffffffffffffffffffffffffffffffffffffffffffffffffffffc360112610779576107c436610d18565b6107cd36610de4565b90610124359167ffffffffffffffff83116107795761093b5f9273ffffffffffffffffffffffffffffffffffffffff9261080e610976963690600401610e8a565b916108fc6040519361081f85610c27565b3385526020850192835260408501938452606085019081526108e760808601948986526108b560a08801958b87526040519a8b996020808c0152511660408a015251606089019073ffffffffffffffffffffffffffffffffffffffff6080809282815116855282602082015116602086015262ffffff6040820151166040860152606081015160020b6060860152015116910152565b518051600290810b6101008901526020820151900b610120880152604081015161014088015260600151610160870152565b516101a06101808601526101e0850190610edd565b915115156101a08401525115156101c0830152037fffffffffffffffffffffffffffffffffffffffffffffffffffffffffffffffe08101835282610ca8565b604051809381927f48c89491000000000000000000000000000000000000000000000000000000008352602060048401526024830190610edd565b03818373ffffffffffffffffffffffffffffffffffffffff7f0000000000000000000000000000000000000000000000000000000000000000165af1908115610785575f916109fd575b50602081805181010312610779576020015147806109e4575b602082604051908152f35b5f80808093335af1156109f757816109d9565b33611656565b90503d805f833e610a0e8183610ca8565b8101906020818303126107795780519067ffffffffffffffff8211610779570181601f8201121561077957805190610a4582610e50565b92610a536040519485610ca8565b8284526020838301011161077957815f9260208093018386015e83010152816109c0565b34610779575f7ffffffffffffffffffffffffffffffffffffffffffffffffffffffffffffffffc36011261077957602060405173ffffffffffffffffffffffffffffffffffffffff7f0000000000000000000000000000000000000000000000000000000000000000168152f35b6101807ffffffffffffffffffffffffffffffffffffffffffffffffffffffffffffffffc36011261077957610b1936610d18565b610b2236610de4565b906101243567ffffffffffffffff811161077957610b44903690600401610e8a565b91610144359283151580940361077957610164359283151580940361077957610976945f946108fc61093b946108e773ffffffffffffffffffffffffffffffffffffffff976108b560405197610b9989610c27565b3389526020890190815260408901928352606089019485526080890197885260a089019687526040519a8b996020808c0152511660408a015251606089019073ffffffffffffffffffffffffffffffffffffffff6080809282815116855282602082015116602086015262ffffff6040820151166040860152606081015160020b6060860152015116910152565b60c0810190811067ffffffffffffffff821117610c4357604052565b7f4e487b71000000000000000000000000000000000000000000000000000000005f52604160045260245ffd5b60a0810190811067ffffffffffffffff821117610c4357604052565b6080810190811067ffffffffffffffff821117610c4357604052565b90601f7fffffffffffffffffffffffffffffffffffffffffffffffffffffffffffffffe0910116810190811067ffffffffffffffff821117610c4357604052565b359073ffffffffffffffffffffffffffffffffffffffff8216820361077957565b35908160020b820361077957565b7ffffffffffffffffffffffffffffffffffffffffffffffffffffffffffffffffc60a09101126107795760405190610d4f82610c70565b8160043573ffffffffffffffffffffffffffffffffffffffff8116810361077957815260243573ffffffffffffffffffffffffffffffffffffffff8116810361077957602082015260443562ffffff811681036107795760408201526064358060020b81036107795760608201526084359073ffffffffffffffffffffffffffffffffffffffff821682036107795760800152565b7fffffffffffffffffffffffffffffffffffffffffffffffffffffffffffffff5c60809101126107795760405190610e1b82610c8c565b8160a4358060020b810361077957815260c4358060020b810361077957602082015260e4356040820152606061010435910152565b67ffffffffffffffff8111610c4357601f017fffffffffffffffffffffffffffffffffffffffffffffffffffffffffffffffe01660200190565b81601f8201121561077957803590610ea182610e50565b92610eaf6040519485610ca8565b8284526020838301011161077957815f926020809301838601378301015290565b3590811515820361077957565b907fffffffffffffffffffffffffffffffffffffffffffffffffffffffffffffffe0601f602080948051918291828752018686015e5f8582860101520116010190565b15610f2757565b7f4e487b71000000000000000000000000000000000000000000000000000000005f52600160045260245ffd5b7f80000000000000000000000000000000000000000000000000000000000000008114610720575f0390565b94939290926040519460268601526006850152600384015282525f603a600c8401209281604082015281602082015252604051602081019182526006604082015260408152610fd0606082610ca8565b51902091600683018093116107205760445f9273ffffffffffffffffffffffffffffffffffffffff946040519060208201928352604082015260408152611018606082610ca8565b51902060405194859384927f35fd631a000000000000000000000000000000000000000000000000000000008452600484015260036024840152165afa908115610785575f91611078575b50602081015160408201516060909201519092565b90503d805f833e6110898183610ca8565b8101906020818303126107795780519067ffffffffffffffff821161077957019080601f830112156107795781519167ffffffffffffffff8311610c43578260051b90604051936110dd6020840186610ca8565b845260208085019282010192831161077957602001905b828210611104575050505f611063565b81518152602091820191016110f4565b92906111209084611716565b9273ffffffffffffffffffffffffffffffffffffffff807f00000000000000000000000000000000000000000000000000000000000000001691816111658483611716565b95165f5216602052602060405f206024604051809481937ff135baaa00000000000000000000000000000000000000000000000000000000835260048301525afa908115610785575f916111b7575090565b90506020813d6020116111de575b816111d260209383610ca8565b81010312610779575190565b3d91506111c5565b90816020910312610779575180151581036107795790565b90816020910312610779575190565b9293156112af5773ffffffffffffffffffffffffffffffffffffffff16803b15610779576040517ff5298aca00000000000000000000000000000000000000000000000000000000815273ffffffffffffffffffffffffffffffffffffffff92831660048201529290911660248301526044820192909252905f908290818381606481015b03925af18015610785576112a35750565b5f6112ad91610ca8565b565b9173ffffffffffffffffffffffffffffffffffffffff168061134d57505073ffffffffffffffffffffffffffffffffffffffff600460209260405194859384927f11da60b4000000000000000000000000000000000000000000000000000000008452165af18015610785576113225750565b6113439060203d602011611346575b61133b8183610ca8565b8101906111fe565b50565b503d611331565b90929173ffffffffffffffffffffffffffffffffffffffff1691823b1561077957604051937fa58411940000000000000000000000000000000000000000000000000000000085525f948360048201525f8160248183895af180156107855761151c575b5073ffffffffffffffffffffffffffffffffffffffff16843082146114a8576020929160649160405195869485937f23b872dd000000000000000000000000000000000000000000000000000000008552600485015288602485015260448401525af1801561149d57916020918493611470575b505b6004604051809581937f11da60b40000000000000000000000000000000000000000000000000000000083525af190811561146457506113225750565b604051903d90823e3d90fd5b61148f90833d8511611496575b6114878183610ca8565b8101906111e6565b505f611425565b503d61147d565b6040513d85823e3d90fd5b929050604460209260405194859384927fa9059cbb00000000000000000000000000000000000000000000000000000000845288600485015260248401525af1801561149d579160209184936114ff575b50611427565b61151590833d8511611496576114878183610ca8565b505f6114f9565b6115299195505f90610ca8565b5f9373ffffffffffffffffffffffffffffffffffffffff6113b1565b9293156115ce5773ffffffffffffffffffffffffffffffffffffffff16803b15610779576040517f156e29f600000000000000000000000000000000000000000000000000000000815273ffffffffffffffffffffffffffffffffffffffff92831660048201529290911660248301526044820192909252905f90829081838160648101611292565b90929073ffffffffffffffffffffffffffffffffffffffff16803b15610779575f928360649273ffffffffffffffffffffffffffffffffffffffff948560405198899788967f0b0d9c0900000000000000000000000000000000000000000000000000000000885216600487015216602485015260448401525af18015610785576112a35750565b7fffffffffffffffffffffffffffffffffffffffffffffffffffffffffffffffe0601f3d011673ffffffffffffffffffffffffffffffffffffffff604051927f90bfb8650000000000000000000000000000000000000000000000000000000084521660048301525f6024830152608060448301528060a00160648301523d60848301523d5f60a484013e7ff4b3b1bc0000000000000000000000000000000000000000000000000000000060c4828401600460a4820152015260e40190fd5b73ffffffffffffffffffffffffffffffffffffffff168061173657503190565b9073ffffffffffffffffffffffffffffffffffffffff602460209260405194859384927f70a082310000000000000000000000000000000000000000000000000000000084521660048301525afa908115610785575f916111b757509056fea164736f6c634300081a000a000000000000000000000000360e68faccca8ca495c1b759fd9eee466db9fb32",
        "nonce": "0x10",
        "chainId": "0xc4"
      },
      "additionalContracts": [],
      "isFixedGasLimit": false
    },
    {
      "hash": "0x8db7848ed80b02842e17b9eebec69994be97de4fd6d64442bd1b863d0598bf2f",
      "transactionType": "CREATE",
      "contractName": "PoolSwapTest",
      "contractAddress": "0x7e8b10d70864db8c5ab9a48ab1c5e782b23dda9d",
      "function": null,
      "arguments": [
        "0x360E68faCcca8cA495c1B759Fd9EEe466db9FB32"
      ],
      "transaction": {
        "from": "0x4965096bd8545b903c85530061bcc184c840306c",
        "to": null,
        "gas": "0x1ea557",
        "value": "0x0",
        "input": "0x60a034607a57601f611bb938819003918201601f19168301916001600160401b03831184841017607e57808492602094604052833981010312607a57516001600160a01b0381168103607a57608052604051611b269081610093823960805181818160ab01528181610d29015281816110a6015261158c0152f35b5f80fd5b634e487b7160e01b5f52604160045260245ffdfe60806040526004361015610011575f80fd5b5f3560e01c80632229d0b414610d4d578063481c6a7514610cdf576391dd73461461003a575f80fd5b34610c0c5760207ffffffffffffffffffffffffffffffffffffffffffffffffffffffffffffffffc360112610c0c5760043567ffffffffffffffff8111610c0c5736602382011215610c0c57806004013567ffffffffffffffff8111610c0c578101906024820191368311610c0c577f00000000000000000000000000000000000000000000000000000000000000009273ffffffffffffffffffffffffffffffffffffffff841692833303610c0c57602081840312610c0c5760248101359067ffffffffffffffff8211610c0c57019061018082840312610c0c576040519161012383611236565b61012f602482016112f8565b835260407fffffffffffffffffffffffffffffffffffffffffffffffffffffffffffffffe08286030112610c0c576040519061016a8261129b565b61017660448201611319565b825261018460648201611319565b60208301526020840191825260a060247fffffffffffffffffffffffffffffffffffffffffffffffffffffffffffffff7c838803010112610c0c57604051946101cc86611236565b6101d8608483016112f8565b86526101e660a483016112f8565b602087015260c482013562ffffff81168103610c0c57604087015260e48201358060020b8103610c0c57606087015261010482013573ffffffffffffffffffffffffffffffffffffffff81168103610c0c577ffffffffffffffffffffffffffffffffffffffffffffffffffffffffffffffedc8360609360249360808b015260408901998a5203010112610c0c57604051926102818461127f565b61028e6101248301611319565b8452610144820135602085015261016482013573ffffffffffffffffffffffffffffffffffffffff81168103610c0c576040850152606085019384526101848201359167ffffffffffffffff8311610c0c576102ed9201602401611360565b946080840195865261033073ffffffffffffffffffffffffffffffffffffffff8651511673ffffffffffffffffffffffffffffffffffffffff8651163091611567565b91505061037273ffffffffffffffffffffffffffffffffffffffff60208851015116309073ffffffffffffffffffffffffffffffffffffffff88511690611567565b92915050610c8157610c2357610447956020916104135f885161045b885195516040519c8d97889687957ff3cd914c000000000000000000000000000000000000000000000000000000008752600487019073ffffffffffffffffffffffffffffffffffffffff6080809282815116855282602082015116602086015262ffffff6040820151166040860152606081015160020b6060860152015116910152565b8051151560a4860152602081015160c48601526040015173ffffffffffffffffffffffffffffffffffffffff1660e4850152565b6101206101048401526101248301906113a6565b03925af1948515610c18575f95610be0575b506104aa73ffffffffffffffffffffffffffffffffffffffff85515116309073ffffffffffffffffffffffffffffffffffffffff86511690611567565b979150506104ed73ffffffffffffffffffffffffffffffffffffffff60208751015116309073ffffffffffffffffffffffffffffffffffffffff87511690611567565b855180519196935091501561092357505f602082510151125f146107cb575160200151871261072157610527878760801d600f0b146113f8565b5f831261069d57610582965b5f811261065b575b5f8412610606575b5f81136105be575b505f8313610586575b86866040519060208201526020815261056e6040826112b7565b6040519182916020835260208301906113a6565b0390f35b73ffffffffffffffffffffffffffffffffffffffff8060206105b49751015116945116915151151593611989565b5f80808080610554565b6106009073ffffffffffffffffffffffffffffffffffffffff875151169073ffffffffffffffffffffffffffffffffffffffff87511684865151151593611989565b5f61054b565b61065673ffffffffffffffffffffffffffffffffffffffff6020885101511673ffffffffffffffffffffffffffffffffffffffff8751166106468761150e565b9085602088510151151593611651565b610543565b61069873ffffffffffffffffffffffffffffffffffffffff8751511673ffffffffffffffffffffffffffffffffffffffff8751166106468461150e565b61053b565b60846040517f08c379a000000000000000000000000000000000000000000000000000000000815260206004820152602d60248201527f64656c7461416674657231206973206e6f742067726561746572207468616e2060448201527f6f7220657175616c20746f2030000000000000000000000000000000000000006064820152fd5b60a46040517f08c379a000000000000000000000000000000000000000000000000000000000815260206004820152604760248201527f64656c7461416674657230206973206e6f742067726561746572207468616e2060448201527f6f7220657175616c20746f20646174612e706172616d732e616d6f756e74537060648201527f65636966696564000000000000000000000000000000000000000000000000006084820152fd5b5f881361089f576020906107e38589600f0b14611483565b51015183136107f55761058296610533565b60a46040517f08c379a000000000000000000000000000000000000000000000000000000000815260206004820152604460248201527f64656c7461416674657231206973206e6f74206c657373207468616e206f722060448201527f657175616c20746f20646174612e706172616d732e616d6f756e74537065636960648201527f66696564000000000000000000000000000000000000000000000000000000006084820152fd5b60846040517f08c379a000000000000000000000000000000000000000000000000000000000815260206004820152602d60248201527f64656c7461416674657230206973206e6f74206c657373207468616e206f722060448201527f657175616c20746f207a65726f000000000000000000000000000000000000006064820152fd5b602001515f1315610a8557516020015183126109db576109478387600f0b14611483565b5f87126109575761058296610533565b60846040517f08c379a000000000000000000000000000000000000000000000000000000000815260206004820152602d60248201527f64656c7461416674657230206973206e6f742067726561746572207468616e2060448201527f6f7220657175616c20746f2030000000000000000000000000000000000000006064820152fd5b60a46040517f08c379a000000000000000000000000000000000000000000000000000000000815260206004820152604760248201527f64656c7461416674657231206973206e6f742067726561746572207468616e2060448201527f6f7220657175616c20746f20646174612e706172616d732e616d6f756e74537060648201527f65636966696564000000000000000000000000000000000000000000000000006084820152fd5b5f8413610b5c57602090610aa0898960801d600f0b146113f8565b5101518713610ab25761058296610533565b60a46040517f08c379a000000000000000000000000000000000000000000000000000000000815260206004820152604460248201527f64656c7461416674657230206973206e6f74206c657373207468616e206f722060448201527f657175616c20746f20646174612e706172616d732e616d6f756e74537065636960648201527f66696564000000000000000000000000000000000000000000000000000000006084820152fd5b60846040517f08c379a000000000000000000000000000000000000000000000000000000000815260206004820152602a60248201527f64656c7461416674657231206973206e6f74206c657373207468616e206f722060448201527f657175616c20746f2030000000000000000000000000000000000000000000006064820152fd5b9094506020813d602011610c10575b81610bfc602093836112b7565b81010312610c0c5751935f61046d565b5f80fd5b3d9150610bef565b6040513d5f823e3d90fd5b60646040517f08c379a000000000000000000000000000000000000000000000000000000000815260206004820152601e60248201527f64656c74614265666f726531206973206e6f7420657175616c20746f203000006044820152fd5b60646040517f08c379a000000000000000000000000000000000000000000000000000000000815260206004820152601e60248201527f64656c74614265666f726530206973206e6f7420657175616c20746f203000006044820152fd5b34610c0c575f7ffffffffffffffffffffffffffffffffffffffffffffffffffffffffffffffffc360112610c0c57602060405173ffffffffffffffffffffffffffffffffffffffff7f0000000000000000000000000000000000000000000000000000000000000000168152f35b7ffffffffffffffffffffffffffffffffffffffffffffffffffffffffffffffffc36016101608112610c0c5760a013610c0c57604051610d8c81611236565b60043573ffffffffffffffffffffffffffffffffffffffff81168103610c0c57815260243573ffffffffffffffffffffffffffffffffffffffff81168103610c0c57602082015260443562ffffff81168103610c0c5760408201526064358060020b8103610c0c57606082015260843573ffffffffffffffffffffffffffffffffffffffff81168103610c0c57608082015260607fffffffffffffffffffffffffffffffffffffffffffffffffffffffffffffff5c360112610c0c57604051610e548161127f565b60a4358015158103610c0c57815260c435602082015260e43573ffffffffffffffffffffffffffffffffffffffff81168103610c0c57604082015260407ffffffffffffffffffffffffffffffffffffffffffffffffffffffffffffffefc360112610c0c5760405191610ec68361129b565b610104358015158103610c0c578352610124358015158103610c0c5760208401526101443567ffffffffffffffff8111610c0c5761108c9361102573ffffffffffffffffffffffffffffffffffffffff936110105f96610fd8610f30611051973690600401611360565b93602060405197610f4089611236565b3389528189019081526040890192835260608901948552608089019687526040519a8b9983808c0152511660408a0152518051151560608a01520151151560808801525160a087019073ffffffffffffffffffffffffffffffffffffffff6080809282815116855282602082015116602086015262ffffff6040820151166040860152606081015160020b6060860152015116910152565b518051151561014086015260208101516101608601526040015173ffffffffffffffffffffffffffffffffffffffff16610180850152565b516101806101a08401526101c08301906113a6565b037fffffffffffffffffffffffffffffffffffffffffffffffffffffffffffffffe081018352826112b7565b604051809381927f48c894910000000000000000000000000000000000000000000000000000000083526020600484015260248301906113a6565b03818373ffffffffffffffffffffffffffffffffffffffff7f0000000000000000000000000000000000000000000000000000000000000000165af1908115610c18575f916111bc575b5060208151918180820193849201010312610c0c575147806110fe575b602082604051908152f35b5f80808093335af11561111157816110f3565b7fffffffffffffffffffffffffffffffffffffffffffffffffffffffffffffffe0601f3d0116604051907f90bfb8650000000000000000000000000000000000000000000000000000000082523360048301525f6024830152608060448301528060a00160648301523d60848301523d5f60a484013e7ff4b3b1bc0000000000000000000000000000000000000000000000000000000060c4828401600460a4820152015260e40190fd5b90503d805f833e6111cd81836112b7565b810190602081830312610c0c5780519067ffffffffffffffff8211610c0c570181601f82011215610c0c5780519061120482611326565b9261121260405194856112b7565b82845260208383010111610c0c57815f9260208093018386015e83010152816110d6565b60a0810190811067ffffffffffffffff82111761125257604052565b7f4e487b71000000000000000000000000000000000000000000000000000000005f52604160045260245ffd5b6060810190811067ffffffffffffffff82111761125257604052565b6040810190811067ffffffffffffffff82111761125257604052565b90601f7fffffffffffffffffffffffffffffffffffffffffffffffffffffffffffffffe0910116810190811067ffffffffffffffff82111761125257604052565b359073ffffffffffffffffffffffffffffffffffffffff82168203610c0c57565b35908115158203610c0c57565b67ffffffffffffffff811161125257601f017fffffffffffffffffffffffffffffffffffffffffffffffffffffffffffffffe01660200190565b81601f82011215610c0c5780359061137782611326565b9261138560405194856112b7565b82845260208383010111610c0c57815f926020809301838601378301015290565b907fffffffffffffffffffffffffffffffffffffffffffffffffffffffffffffffe0601f602080948051918291828752018686015e5f8582860101520116010190565b90816020910312610c0c575190565b156113ff57565b60846040517f08c379a000000000000000000000000000000000000000000000000000000000815260206004820152602b60248201527f64656c74612e616d6f756e74302829206973206e6f7420657175616c20746f2060448201527f64656c74614166746572300000000000000000000000000000000000000000006064820152fd5b1561148a57565b60846040517f08c379a000000000000000000000000000000000000000000000000000000000815260206004820152602b60248201527f64656c74612e616d6f756e74312829206973206e6f7420657175616c20746f2060448201527f64656c74614166746572310000000000000000000000000000000000000000006064820152fd5b7f8000000000000000000000000000000000000000000000000000000000000000811461153a575f0390565b7f4e487b71000000000000000000000000000000000000000000000000000000005f52601160045260245ffd5b92906115739084611a9a565b9273ffffffffffffffffffffffffffffffffffffffff807f00000000000000000000000000000000000000000000000000000000000000001691816115b88483611a9a565b95165f5216602052602060405f206024604051809481937ff135baaa00000000000000000000000000000000000000000000000000000000835260048301525afa908115610c18575f9161160a575090565b90506020813d602011611631575b81611625602093836112b7565b81010312610c0c575190565b3d9150611618565b90816020910312610c0c57518015158103610c0c5790565b9293156116f35773ffffffffffffffffffffffffffffffffffffffff16803b15610c0c576040517ff5298aca00000000000000000000000000000000000000000000000000000000815273ffffffffffffffffffffffffffffffffffffffff92831660048201529290911660248301526044820192909252905f908290818381606481015b03925af18015610c18576116e75750565b5f6116f1916112b7565b565b9173ffffffffffffffffffffffffffffffffffffffff168061179157505073ffffffffffffffffffffffffffffffffffffffff600460209260405194859384927f11da60b4000000000000000000000000000000000000000000000000000000008452165af18015610c18576117665750565b6117879060203d60201161178a575b61177f81836112b7565b8101906113e9565b50565b503d611775565b90929173ffffffffffffffffffffffffffffffffffffffff1691823b15610c0c57604051937fa58411940000000000000000000000000000000000000000000000000000000085525f948360048201525f8160248183895af18015610c1857611960575b5073ffffffffffffffffffffffffffffffffffffffff16843082146118ec576020929160649160405195869485937f23b872dd000000000000000000000000000000000000000000000000000000008552600485015288602485015260448401525af180156118e1579160209184936118b4575b505b6004604051809581937f11da60b40000000000000000000000000000000000000000000000000000000083525af19081156118a857506117665750565b604051903d90823e3d90fd5b6118d390833d85116118da575b6118cb81836112b7565b810190611639565b505f611869565b503d6118c1565b6040513d85823e3d90fd5b929050604460209260405194859384927fa9059cbb00000000000000000000000000000000000000000000000000000000845288600485015260248401525af180156118e157916020918493611943575b5061186b565b61195990833d85116118da576118cb81836112b7565b505f61193d565b61196d9195505f906112b7565b5f9373ffffffffffffffffffffffffffffffffffffffff6117f5565b929315611a125773ffffffffffffffffffffffffffffffffffffffff16803b15610c0c576040517f156e29f600000000000000000000000000000000000000000000000000000000815273ffffffffffffffffffffffffffffffffffffffff92831660048201529290911660248301526044820192909252905f908290818381606481016116d6565b90929073ffffffffffffffffffffffffffffffffffffffff16803b15610c0c575f928360649273ffffffffffffffffffffffffffffffffffffffff948560405198899788967f0b0d9c0900000000000000000000000000000000000000000000000000000000885216600487015216602485015260448401525af18015610c18576116e75750565b73ffffffffffffffffffffffffffffffffffffffff1680611aba57503190565b9073ffffffffffffffffffffffffffffffffffffffff602460209260405194859384927f70a082310000000000000000000000000000000000000000000000000000000084521660048301525afa908115610c18575f9161160a57509056fea164736f6c634300081a000a000000000000000000000000360e68faccca8ca495c1b759fd9eee466db9fb32",
        "nonce": "0x11",
        "chainId": "0xc4"
      },
      "additionalContracts": [],
      "isFixedGasLimit": false
    },
    {
      "hash": "0x1784a1f7fe38aec857158931d177492f8f2f42b80b6a5e3fc3d2e52b48afe7ac",
      "transactionType": "CALL",
      "contractName": null,
      "contractAddress": "0x046eae536455fe1ee1b78e9c0e3e13d55edbe921",
      "function": "approve(address,uint256)",
      "arguments": [
        "0x3D1Fa1FBaAb354d40DF7D3E8a74FB8e443919247",
        "115792089237316195423570985008687907853269984665640564039457584007913129639935"
      ],
      "transaction": {
        "from": "0x4965096bd8545b903c85530061bcc184c840306c",
        "to": "0x046eae536455fe1ee1b78e9c0e3e13d55edbe921",
        "gas": "0x107f3",
        "value": "0x0",
        "input": "0x095ea7b30000000000000000000000003d1fa1fbaab354d40df7d3e8a74fb8e443919247ffffffffffffffffffffffffffffffffffffffffffffffffffffffffffffffff",
        "nonce": "0x12",
        "chainId": "0xc4"
      },
      "additionalContracts": [],
      "isFixedGasLimit": false
    },
    {
      "hash": "0xa98c92c85eaec58ec383f0666b83f6af97710ec7a0b5d61f8c9d0420d8f37ff8",
      "transactionType": "CALL",
      "contractName": null,
      "contractAddress": "0xfe9049a12ef8e658f56d33734c0b0aeee80824af",
      "function": "approve(address,uint256)",
      "arguments": [
        "0x3D1Fa1FBaAb354d40DF7D3E8a74FB8e443919247",
        "115792089237316195423570985008687907853269984665640564039457584007913129639935"
      ],
      "transaction": {
        "from": "0x4965096bd8545b903c85530061bcc184c840306c",
        "to": "0xfe9049a12ef8e658f56d33734c0b0aeee80824af",
        "gas": "0x107f3",
        "value": "0x0",
        "input": "0x095ea7b30000000000000000000000003d1fa1fbaab354d40df7d3e8a74fb8e443919247ffffffffffffffffffffffffffffffffffffffffffffffffffffffffffffffff",
        "nonce": "0x13",
        "chainId": "0xc4"
      },
      "additionalContracts": [],
      "isFixedGasLimit": false
    },
    {
      "hash": "0x90789fdd5eb6b875b31fd54c41c6fab424948f65e37fc354a574744ec9502c6a",
      "transactionType": "CALL",
      "contractName": null,
      "contractAddress": "0x046eae536455fe1ee1b78e9c0e3e13d55edbe921",
      "function": "approve(address,uint256)",
      "arguments": [
        "0x7E8B10d70864dB8c5aB9a48ab1c5E782b23Dda9d",
        "115792089237316195423570985008687907853269984665640564039457584007913129639935"
      ],
      "transaction": {
        "from": "0x4965096bd8545b903c85530061bcc184c840306c",
        "to": "0x046eae536455fe1ee1b78e9c0e3e13d55edbe921",
        "gas": "0x107f3",
        "value": "0x0",
        "input": "0x095ea7b30000000000000000000000007e8b10d70864db8c5ab9a48ab1c5e782b23dda9dffffffffffffffffffffffffffffffffffffffffffffffffffffffffffffffff",
        "nonce": "0x14",
        "chainId": "0xc4"
      },
      "additionalContracts": [],
      "isFixedGasLimit": false
    },
    {
      "hash": "0x2ecdef5cbe826297fbbac46d6bbed5d595e17748df6aefd46a4d25ed7bd28aa4",
      "transactionType": "CALL",
      "contractName": null,
      "contractAddress": "0xfe9049a12ef8e658f56d33734c0b0aeee80824af",
      "function": "approve(address,uint256)",
      "arguments": [
        "0x7E8B10d70864dB8c5aB9a48ab1c5E782b23Dda9d",
        "115792089237316195423570985008687907853269984665640564039457584007913129639935"
      ],
      "transaction": {
        "from": "0x4965096bd8545b903c85530061bcc184c840306c",
        "to": "0xfe9049a12ef8e658f56d33734c0b0aeee80824af",
        "gas": "0x107f3",
        "value": "0x0",
        "input": "0x095ea7b30000000000000000000000007e8b10d70864db8c5ab9a48ab1c5e782b23dda9dffffffffffffffffffffffffffffffffffffffffffffffffffffffffffffffff",
        "nonce": "0x15",
        "chainId": "0xc4"
      },
      "additionalContracts": [],
      "isFixedGasLimit": false
    },
    {
      "hash": "0x2977b45ab69829f59c72af013f237b3c86f11700e4d052496f5bb90dfebc8739",
      "transactionType": "CALL",
      "contractName": "PoolModifyLiquidityTest",
      "contractAddress": "0x3d1fa1fbaab354d40df7d3e8a74fb8e443919247",
      "function": "modifyLiquidity((address,address,uint24,int24,address),(int24,int24,int256,bytes32),bytes)",
      "arguments": [
        "(0x046EAE536455FE1EE1b78e9c0e3e13d55eDBe921, 0xFe9049a12EF8e658F56D33734C0B0aEEe80824aF, 3000, 60, 0x043b00Ae5d234e6c34107D60bFb663e7088a8744)",
        "(-887220, 887220, 10000000000000000000, 0x0000000000000000000000000000000000000000000000000000000000000000)",
        "0x0000000000000000000000004965096bd8545b903c85530061bcc184c840306c"
      ],
      "transaction": {
        "from": "0x4965096bd8545b903c85530061bcc184c840306c",
        "to": "0x3d1fa1fbaab354d40df7d3e8a74fb8e443919247",
        "gas": "0x7c838",
        "value": "0x0",
        "input": "0x5a6bcfda000000000000000000000000046eae536455fe1ee1b78e9c0e3e13d55edbe921000000000000000000000000fe9049a12ef8e658f56d33734c0b0aeee80824af0000000000000000000000000000000000000000000000000000000000000bb8000000000000000000000000000000000000000000000000000000000000003c000000000000000000000000043b00ae5d234e6c34107d60bfb663e7088a8744fffffffffffffffffffffffffffffffffffffffffffffffffffffffffff2764c00000000000000000000000000000000000000000000000000000000000d89b40000000000000000000000000000000000000000000000008ac7230489e800000000000000000000000000000000000000000000000000000000000000000000000000000000000000000000000000000000000000000000000000000000014000000000000000000000000000000000000000000000000000000000000000200000000000000000000000004965096bd8545b903c85530061bcc184c840306c",
        "nonce": "0x16",
        "chainId": "0xc4"
      },
      "additionalContracts": [],
      "isFixedGasLimit": false
    },
    {
      "hash": "0x77cd00e027065a7f9c664330c80cca77054b4c72e2f8a99d9774d26d5f2c70db",
      "transactionType": "CALL",
      "contractName": "PoolSwapTest",
      "contractAddress": "0x7e8b10d70864db8c5ab9a48ab1c5e782b23dda9d",
      "function": "swap((address,address,uint24,int24,address),(bool,int256,uint160),(bool,bool),bytes)",
      "arguments": [
        "(0x046EAE536455FE1EE1b78e9c0e3e13d55eDBe921, 0xFe9049a12EF8e658F56D33734C0B0aEEe80824aF, 3000, 60, 0x043b00Ae5d234e6c34107D60bFb663e7088a8744)",
        "(true, -100000000000000000, 4295128740)",
        "(false, false)",
        "0x"
      ],
      "transaction": {
        "from": "0x4965096bd8545b903c85530061bcc184c840306c",
        "to": "0x7e8b10d70864db8c5ab9a48ab1c5e782b23dda9d",
        "gas": "0x38945",
        "value": "0x0",
        "input": "0x2229d0b4000000000000000000000000046eae536455fe1ee1b78e9c0e3e13d55edbe921000000000000000000000000fe9049a12ef8e658f56d33734c0b0aeee80824af0000000000000000000000000000000000000000000000000000000000000bb8000000000000000000000000000000000000000000000000000000000000003c000000000000000000000000043b00ae5d234e6c34107d60bfb663e7088a87440000000000000000000000000000000000000000000000000000000000000001fffffffffffffffffffffffffffffffffffffffffffffffffe9cba87a276000000000000000000000000000000000000000000000000000000000001000276a40000000000000000000000000000000000000000000000000000000000000000000000000000000000000000000000000000000000000000000000000000000000000000000000000000000000000000000000000000000000000000000001600000000000000000000000000000000000000000000000000000000000000000",
        "nonce": "0x17",
        "chainId": "0xc4"
      },
      "additionalContracts": [],
      "isFixedGasLimit": false
    },
    {
      "hash": "0x4cfe82e524041a6df0011abdaf3a51b75fe7cbe622acbc6d1111420fbe37bedd",
      "transactionType": "CALL",
      "contractName": "PoolModifyLiquidityTest",
      "contractAddress": "0x3d1fa1fbaab354d40df7d3e8a74fb8e443919247",
      "function": "modifyLiquidity((address,address,uint24,int24,address),(int24,int24,int256,bytes32),bytes)",
      "arguments": [
        "(0x046EAE536455FE1EE1b78e9c0e3e13d55eDBe921, 0xFe9049a12EF8e658F56D33734C0B0aEEe80824aF, 3000, 60, 0x043b00Ae5d234e6c34107D60bFb663e7088a8744)",
        "(-887220, 887220, -10000000000000000000, 0x0000000000000000000000000000000000000000000000000000000000000000)",
        "0x0000000000000000000000004965096bd8545b903c85530061bcc184c840306c"
      ],
      "transaction": {
        "from": "0x4965096bd8545b903c85530061bcc184c840306c",
        "to": "0x3d1fa1fbaab354d40df7d3e8a74fb8e443919247",
        "gas": "0x32c8a",
        "value": "0x0",
        "input": "0x5a6bcfda000000000000000000000000046eae536455fe1ee1b78e9c0e3e13d55edbe921000000000000000000000000fe9049a12ef8e658f56d33734c0b0aeee80824af0000000000000000000000000000000000000000000000000000000000000bb8000000000000000000000000000000000000000000000000000000000000003c000000000000000000000000043b00ae5d234e6c34107d60bfb663e7088a8744fffffffffffffffffffffffffffffffffffffffffffffffffffffffffff2764c00000000000000000000000000000000000000000000000000000000000d89b4ffffffffffffffffffffffffffffffffffffffffffffffff7538dcfb761800000000000000000000000000000000000000000000000000000000000000000000000000000000000000000000000000000000000000000000000000000000014000000000000000000000000000000000000000000000000000000000000000200000000000000000000000004965096bd8545b903c85530061bcc184c840306c",
        "nonce": "0x18",
        "chainId": "0xc4"
      },
      "additionalContracts": [],
      "isFixedGasLimit": false
    }
  ],
  "receipts": [
    {
      "type": "0x2",
      "status": "0x1",
      "cumulativeGasUsed": "0x181ed9",
      "logs": [],
      "logsBloom": "0x00000000000000000000000000000000000000000000000000000000000000000000000000000000000000000000000000000000000000000000000000000000000000000000000000000000000000000000000000000000000000000000000000000000000000000000000000000000000000000000000000000000000000000000000000000000000000000000000000000000000000000000000000000000000000000000000000000000000000000000000000000000000000000000000000000000000000000000000000000000000000000000000000000000000000000000000000000000000000000000000000000000000000000000000000000000",
      "transactionHash": "0xf788cb265a3314297b9b49a204f287e15e82984d922d81b23618a610a15fe7ed",
      "transactionIndex": "0x2",
      "blockHash": "0xae523cf791b42ebaa5b11da602bf1ef5b66f06d1ce8adf7ffa6195887efb2de2",
      "blockNumber": "0x3a30921",
      "gasUsed": "0x14b0da",
      "effectiveGasPrice": "0x1312d01",
      "blobGasUsed": "0x113fa0",
      "from": "0x4965096bd8545b903c85530061bcc184c840306c",
      "to": null,
      "contractAddress": "0x3d1fa1fbaab354d40df7d3e8a74fb8e443919247"
    },
    {
      "type": "0x2",
      "status": "0x1",
      "cumulativeGasUsed": "0x33ef1e",
      "logs": [],
      "logsBloom": "0x00000000000000000000000000000000000000000000000000000000000000000000000000000000000000000000000000000000000000000000000000000000000000000000000000000000000000000000000000000000000000000000000000000000000000000000000000000000000000000000000000000000000000000000000000000000000000000000000000000000000000000000000000000000000000000000000000000000000000000000000000000000000000000000000000000000000000000000000000000000000000000000000000000000000000000000000000000000000000000000000000000000000000000000000000000000",
      "transactionHash": "0x2977b45ab69829f59c72af013f237b3c86f11700e4d052496f5bb90dfebc8739",
      "transactionIndex": "0x7",
      "blockHash": "0xae523cf791b42ebaa5b11da602bf1ef5b66f06d1ce8adf7ffa6195887efb2de2",
      "blockNumber": "0x3a30921",
      "gasUsed": "0x1792e1",
      "effectiveGasPrice": "0x1312d01",
      "blobGasUsed": "0x108d80",
      "from": "0x4965096bd8545b903c85530061bcc184c840306c",
      "to": null,
      "contractAddress": "0x7e8b10d70864db8c5ab9a48ab1c5e782b23dda9d"
    },
    {
      "type": "0x2",
      "status": "0x1",
      "cumulativeGasUsed": "0x34a399",
      "logs": [
        {
          "address": "0x046eae536455fe1ee1b78e9c0e3e13d55edbe921",
          "topics": [
            "0x8c5be1e5ebec7d5bd14f71427d1e84f3dd0314c0f7b2291e5b200ac8c7c3b925",
            "0x0000000000000000000000004965096bd8545b903c85530061bcc184c840306c",
            "0x0000000000000000000000003d1fa1fbaab354d40df7d3e8a74fb8e443919247"
          ],
          "data": "0xffffffffffffffffffffffffffffffffffffffffffffffffffffffffffffffff",
          "blockHash": "0xae523cf791b42ebaa5b11da602bf1ef5b66f06d1ce8adf7ffa6195887efb2de2",
          "blockNumber": "0x3a30921",
          "blockTimestamp": "0x6a155ead",
          "transactionHash": "0x1784a1f7fe38aec857158931d177492f8f2f42b80b6a5e3fc3d2e52b48afe7ac",
          "transactionIndex": "0x8",
          "logIndex": "0xe",
          "removed": false
        }
      ],
      "logsBloom": "0x00000000000000000000000000000000000000000000000000000000000000000000000000000000000000000000000000000000000000000000000000200000000000000000000000000000000000000000000000000000000000000000000000000000000008002000008000000000000000000000000020000000000000000000000000000000000000000000000000000000000000000000002000000000020000000002100000000000004000000000000000000000000000000000000000000000000000004000000000000000000000000000000000000000000000000010000000000000000000000000000000000000000000000000000000000000",
      "transactionHash": "0x1784a1f7fe38aec857158931d177492f8f2f42b80b6a5e3fc3d2e52b48afe7ac",
      "transactionIndex": "0x8",
      "blockHash": "0xae523cf791b42ebaa5b11da602bf1ef5b66f06d1ce8adf7ffa6195887efb2de2",
      "blockNumber": "0x3a30921",
      "gasUsed": "0xb47b",
      "effectiveGasPrice": "0x1312d01",
      "blobGasUsed": "0x9c40",
      "from": "0x4965096bd8545b903c85530061bcc184c840306c",
      "to": "0x046eae536455fe1ee1b78e9c0e3e13d55edbe921",
      "contractAddress": null
    },
    {
      "type": "0x2",
      "status": "0x1",
      "cumulativeGasUsed": "0x355814",
      "logs": [
        {
          "address": "0xfe9049a12ef8e658f56d33734c0b0aeee80824af",
          "topics": [
            "0x8c5be1e5ebec7d5bd14f71427d1e84f3dd0314c0f7b2291e5b200ac8c7c3b925",
            "0x0000000000000000000000004965096bd8545b903c85530061bcc184c840306c",
            "0x0000000000000000000000003d1fa1fbaab354d40df7d3e8a74fb8e443919247"
          ],
          "data": "0xffffffffffffffffffffffffffffffffffffffffffffffffffffffffffffffff",
          "blockHash": "0xae523cf791b42ebaa5b11da602bf1ef5b66f06d1ce8adf7ffa6195887efb2de2",
          "blockNumber": "0x3a30921",
          "blockTimestamp": "0x6a155ead",
          "transactionHash": "0x77cd00e027065a7f9c664330c80cca77054b4c72e2f8a99d9774d26d5f2c70db",
          "transactionIndex": "0x9",
          "logIndex": "0xf",
          "removed": false
        }
      ],
      "logsBloom": "0x00000000000000000000000000000000000400000000000000000000000000000000000000000000000000000000000000000000000000000000000000200000080000000000000000000000000000000000000000000000000000000000000000000000000008000000008000000000000000000000000020000000000000000200000000000000000000000000000000000000000000000000000000000000020000000002100000000000000000000000000000000000000000000000000000000000000000004000000000000000000000000000000000000000000000000010000000000000000000000000000000000000000000000000000000000000",
      "transactionHash": "0x77cd00e027065a7f9c664330c80cca77054b4c72e2f8a99d9774d26d5f2c70db",
      "transactionIndex": "0x9",
      "blockHash": "0xae523cf791b42ebaa5b11da602bf1ef5b66f06d1ce8adf7ffa6195887efb2de2",
      "blockNumber": "0x3a30921",
      "gasUsed": "0xb47b",
      "effectiveGasPrice": "0x1312d01",
      "blobGasUsed": "0x9c40",
      "from": "0x4965096bd8545b903c85530061bcc184c840306c",
      "to": "0xfe9049a12ef8e658f56d33734c0b0aeee80824af",
      "contractAddress": null
    },
    {
      "type": "0x2",
      "status": "0x1",
      "cumulativeGasUsed": "0x37923d",
      "logs": [
        {
          "address": "0x046eae536455fe1ee1b78e9c0e3e13d55edbe921",
          "topics": [
            "0x8c5be1e5ebec7d5bd14f71427d1e84f3dd0314c0f7b2291e5b200ac8c7c3b925",
            "0x0000000000000000000000004965096bd8545b903c85530061bcc184c840306c",
            "0x0000000000000000000000007e8b10d70864db8c5ab9a48ab1c5e782b23dda9d"
          ],
          "data": "0xffffffffffffffffffffffffffffffffffffffffffffffffffffffffffffffff",
          "blockHash": "0xae523cf791b42ebaa5b11da602bf1ef5b66f06d1ce8adf7ffa6195887efb2de2",
          "blockNumber": "0x3a30921",
          "blockTimestamp": "0x6a155ead",
          "transactionHash": "0x8db7848ed80b02842e17b9eebec69994be97de4fd6d64442bd1b863d0598bf2f",
          "transactionIndex": "0xb",
          "logIndex": "0x12",
          "removed": false
        }
      ],
      "logsBloom": "0x00000000000000000000000000000000000000000000000000000000000000000000000000000000000000000000000000000000000000000000000000200000000000000000000000000000000000000000000000000000000000010000000000002000000008002000000000000000000000000000000000000000000000000000000000000000000000000000000000000000000000000000002000000000020000000000100000000000004000000000000000000000000000000000000000000000000000004000000000000000000000000000000000000000000000000010000000000000020000000000000000000000000000000000000000000000",
      "transactionHash": "0x8db7848ed80b02842e17b9eebec69994be97de4fd6d64442bd1b863d0598bf2f",
      "transactionIndex": "0xb",
      "blockHash": "0xae523cf791b42ebaa5b11da602bf1ef5b66f06d1ce8adf7ffa6195887efb2de2",
      "blockNumber": "0x3a30921",
      "gasUsed": "0xb47b",
      "effectiveGasPrice": "0x1312d01",
      "blobGasUsed": "0x9c40",
      "from": "0x4965096bd8545b903c85530061bcc184c840306c",
      "to": "0x046eae536455fe1ee1b78e9c0e3e13d55edbe921",
      "contractAddress": null
    },
    {
      "type": "0x2",
      "status": "0x1",
      "cumulativeGasUsed": "0x3846b8",
      "logs": [
        {
          "address": "0xfe9049a12ef8e658f56d33734c0b0aeee80824af",
          "topics": [
            "0x8c5be1e5ebec7d5bd14f71427d1e84f3dd0314c0f7b2291e5b200ac8c7c3b925",
            "0x0000000000000000000000004965096bd8545b903c85530061bcc184c840306c",
            "0x0000000000000000000000007e8b10d70864db8c5ab9a48ab1c5e782b23dda9d"
          ],
          "data": "0xffffffffffffffffffffffffffffffffffffffffffffffffffffffffffffffff",
          "blockHash": "0xae523cf791b42ebaa5b11da602bf1ef5b66f06d1ce8adf7ffa6195887efb2de2",
          "blockNumber": "0x3a30921",
          "blockTimestamp": "0x6a155ead",
          "transactionHash": "0x90789fdd5eb6b875b31fd54c41c6fab424948f65e37fc354a574744ec9502c6a",
          "transactionIndex": "0xc",
          "logIndex": "0x13",
          "removed": false
        }
      ],
      "logsBloom": "0x00000000000000000000000000000000000400000000000000000000000000000000000000000000000000000000000000000000000000000000000000200000080000000000000000000000000000000000000000000000000000010000000000002000000008000000000000000000000000000000000000000000000000000200000000000000000000000000000000000000000000000000000000000000020000000000100000000000000000000000000000000000000000000000000000000000000000004000000000000000000000000000000000000000000000000010000000000000020000000000000000000000000000000000000000000000",
      "transactionHash": "0x90789fdd5eb6b875b31fd54c41c6fab424948f65e37fc354a574744ec9502c6a",
      "transactionIndex": "0xc",
      "blockHash": "0xae523cf791b42ebaa5b11da602bf1ef5b66f06d1ce8adf7ffa6195887efb2de2",
      "blockNumber": "0x3a30921",
      "gasUsed": "0xb47b",
      "effectiveGasPrice": "0x1312d01",
      "blobGasUsed": "0x9c40",
      "from": "0x4965096bd8545b903c85530061bcc184c840306c",
      "to": "0xfe9049a12ef8e658f56d33734c0b0aeee80824af",
      "contractAddress": null
    },
    {
      "type": "0x2",
      "status": "0x1",
      "cumulativeGasUsed": "0x3de90d",
      "logs": [
        {
          "address": "0x360e68faccca8ca495c1b759fd9eee466db9fb32",
          "topics": [
            "0xf208f4912782fd25c7f114ca3723a2d5dd6f3bcc3ac8db5af63baa85f711d5ec",
            "0x6f91ddd9bcd951400001e39c4d33eef23fb90c80d62a9bb3c967367e95432186",
            "0x0000000000000000000000003d1fa1fbaab354d40df7d3e8a74fb8e443919247"
          ],
          "data": "0xfffffffffffffffffffffffffffffffffffffffffffffffffffffffffff2764c00000000000000000000000000000000000000000000000000000000000d89b40000000000000000000000000000000000000000000000008ac7230489e800000000000000000000000000000000000000000000000000000000000000000000",
          "blockHash": "0xae523cf791b42ebaa5b11da602bf1ef5b66f06d1ce8adf7ffa6195887efb2de2",
          "blockNumber": "0x3a30921",
          "blockTimestamp": "0x6a155ead",
          "transactionHash": "0x2ecdef5cbe826297fbbac46d6bbed5d595e17748df6aefd46a4d25ed7bd28aa4",
          "transactionIndex": "0xd",
          "logIndex": "0x14",
          "removed": false
        },
        {
          "address": "0x043b00ae5d234e6c34107d60bfb663e7088a8744",
          "topics": [
            "0x8d0298e03b72a78a92f726ea1182ecdda5198e6d473bf6d79db39082fff590e2",
            "0x6f91ddd9bcd951400001e39c4d33eef23fb90c80d62a9bb3c967367e95432186",
            "0x0000000000000000000000004965096bd8545b903c85530061bcc184c840306c"
          ],
          "data": "0x0000000000000000000000000000000000000000000000008ac7230489e800000000000000000000000000000000000000000000000000008ac7230489e80000",
          "blockHash": "0xae523cf791b42ebaa5b11da602bf1ef5b66f06d1ce8adf7ffa6195887efb2de2",
          "blockNumber": "0x3a30921",
          "blockTimestamp": "0x6a155ead",
          "transactionHash": "0x2ecdef5cbe826297fbbac46d6bbed5d595e17748df6aefd46a4d25ed7bd28aa4",
          "transactionIndex": "0xd",
          "logIndex": "0x15",
          "removed": false
        },
        {
          "address": "0x046eae536455fe1ee1b78e9c0e3e13d55edbe921",
          "topics": [
            "0xddf252ad1be2c89b69c2b068fc378daa952ba7f163c4a11628f55a4df523b3ef",
            "0x0000000000000000000000004965096bd8545b903c85530061bcc184c840306c",
            "0x000000000000000000000000360e68faccca8ca495c1b759fd9eee466db9fb32"
          ],
          "data": "0x0000000000000000000000000000000000000000000000008ac7230489e80000",
          "blockHash": "0xae523cf791b42ebaa5b11da602bf1ef5b66f06d1ce8adf7ffa6195887efb2de2",
          "blockNumber": "0x3a30921",
          "blockTimestamp": "0x6a155ead",
          "transactionHash": "0x2ecdef5cbe826297fbbac46d6bbed5d595e17748df6aefd46a4d25ed7bd28aa4",
          "transactionIndex": "0xd",
          "logIndex": "0x16",
          "removed": false
        },
        {
          "address": "0xfe9049a12ef8e658f56d33734c0b0aeee80824af",
          "topics": [
            "0xddf252ad1be2c89b69c2b068fc378daa952ba7f163c4a11628f55a4df523b3ef",
            "0x0000000000000000000000004965096bd8545b903c85530061bcc184c840306c",
            "0x000000000000000000000000360e68faccca8ca495c1b759fd9eee466db9fb32"
          ],
          "data": "0x0000000000000000000000000000000000000000000000008ac7230489e80000",
          "blockHash": "0xae523cf791b42ebaa5b11da602bf1ef5b66f06d1ce8adf7ffa6195887efb2de2",
          "blockNumber": "0x3a30921",
          "blockTimestamp": "0x6a155ead",
          "transactionHash": "0x2ecdef5cbe826297fbbac46d6bbed5d595e17748df6aefd46a4d25ed7bd28aa4",
          "transactionIndex": "0xd",
          "logIndex": "0x17",
          "removed": false
        }
      ],
      "logsBloom": "0x00000000000000000000000000000000000400000000000000000000000000000000000000000000000000000800000000010000000000000000000000100000080000000000000001000008000000000000000000000000000000000000000000000000080008022000008080000000000000000000000020000010000000000200000001000000001000000000000080000010000000000000002000000000000004000002100000000000004000000000000001000000000000000000000000000002000000004400000000000000000004000000000000000000000000000000000000000000000000000000000004000000000000000000000000000008",
      "transactionHash": "0x2ecdef5cbe826297fbbac46d6bbed5d595e17748df6aefd46a4d25ed7bd28aa4",
      "transactionIndex": "0xd",
      "blockHash": "0xae523cf791b42ebaa5b11da602bf1ef5b66f06d1ce8adf7ffa6195887efb2de2",
      "blockNumber": "0x3a30921",
      "gasUsed": "0x5a255",
      "effectiveGasPrice": "0x1312d01",
      "blobGasUsed": "0x122a0",
      "from": "0x4965096bd8545b903c85530061bcc184c840306c",
      "to": "0x3d1fa1fbaab354d40df7d3e8a74fb8e443919247",
      "contractAddress": null
    },
    {
      "type": "0x2",
      "status": "0x1",
      "cumulativeGasUsed": "0x407874",
      "logs": [
        {
          "address": "0x360e68faccca8ca495c1b759fd9eee466db9fb32",
          "topics": [
            "0x40e9cecb9f5f1f1c5b9c97dec2917b7ee92e57ba5563708daca94dd84ad7112f",
            "0x6f91ddd9bcd951400001e39c4d33eef23fb90c80d62a9bb3c967367e95432186",
            "0x0000000000000000000000007e8b10d70864db8c5ab9a48ab1c5e782b23dda9d"
          ],
          "data": "0xfffffffffffffffffffffffffffffffffffffffffffffffffe9cba87a2760000000000000000000000000000000000000000000000000000015eb5800dbdb0110000000000000000000000000000000000000000fd790e5d4347808dc857a93c0000000000000000000000000000000000000000000000008ac7230489e80000ffffffffffffffffffffffffffffffffffffffffffffffffffffffffffffff390000000000000000000000000000000000000000000000000000000000000bb8",
          "blockHash": "0xae523cf791b42ebaa5b11da602bf1ef5b66f06d1ce8adf7ffa6195887efb2de2",
          "blockNumber": "0x3a30921",
          "blockTimestamp": "0x6a155ead",
          "transactionHash": "0x4cfe82e524041a6df0011abdaf3a51b75fe7cbe622acbc6d1111420fbe37bedd",
          "transactionIndex": "0xe",
          "logIndex": "0x18",
          "removed": false
        },
        {
          "address": "0x043b00ae5d234e6c34107d60bfb663e7088a8744",
          "topics": [
            "0xfd37bf8772861be9c40bb94954706f493ba3741ef179479878745b1e634357fe",
            "0x6f91ddd9bcd951400001e39c4d33eef23fb90c80d62a9bb3c967367e95432186"
          ],
          "data": "0x000000000000000000000000000000000000000000000000000086ac1898bb87",
          "blockHash": "0xae523cf791b42ebaa5b11da602bf1ef5b66f06d1ce8adf7ffa6195887efb2de2",
          "blockNumber": "0x3a30921",
          "blockTimestamp": "0x6a155ead",
          "transactionHash": "0x4cfe82e524041a6df0011abdaf3a51b75fe7cbe622acbc6d1111420fbe37bedd",
          "transactionIndex": "0xe",
          "logIndex": "0x19",
          "removed": false
        },
        {
          "address": "0x046eae536455fe1ee1b78e9c0e3e13d55edbe921",
          "topics": [
            "0xddf252ad1be2c89b69c2b068fc378daa952ba7f163c4a11628f55a4df523b3ef",
            "0x0000000000000000000000004965096bd8545b903c85530061bcc184c840306c",
            "0x000000000000000000000000360e68faccca8ca495c1b759fd9eee466db9fb32"
          ],
          "data": "0x000000000000000000000000000000000000000000000000016345785d8a0000",
          "blockHash": "0xae523cf791b42ebaa5b11da602bf1ef5b66f06d1ce8adf7ffa6195887efb2de2",
          "blockNumber": "0x3a30921",
          "blockTimestamp": "0x6a155ead",
          "transactionHash": "0x4cfe82e524041a6df0011abdaf3a51b75fe7cbe622acbc6d1111420fbe37bedd",
          "transactionIndex": "0xe",
          "logIndex": "0x1a",
          "removed": false
        },
        {
          "address": "0xfe9049a12ef8e658f56d33734c0b0aeee80824af",
          "topics": [
            "0xddf252ad1be2c89b69c2b068fc378daa952ba7f163c4a11628f55a4df523b3ef",
            "0x000000000000000000000000360e68faccca8ca495c1b759fd9eee466db9fb32",
            "0x0000000000000000000000004965096bd8545b903c85530061bcc184c840306c"
          ],
          "data": "0x000000000000000000000000000000000000000000000000015eb5800dbdb011",
          "blockHash": "0xae523cf791b42ebaa5b11da602bf1ef5b66f06d1ce8adf7ffa6195887efb2de2",
          "blockNumber": "0x3a30921",
          "blockTimestamp": "0x6a155ead",
          "transactionHash": "0x4cfe82e524041a6df0011abdaf3a51b75fe7cbe622acbc6d1111420fbe37bedd",
          "transactionIndex": "0xe",
          "logIndex": "0x1b",
          "removed": false
        }
      ],
      "logsBloom": "0x00000000000200000000000000000000000400000000000000000000000000000000000000000000000000000800000000010000040000800000000000100000080000000000000001000008000000000000000000000020000000010000000000002000000008022000000000000000000000000000000000000010000000000200000000000000000000000000000080000010000000000000002000000000000000000000100000000000004000000000000001000000000000000000080000000002000000004400000000000000000004000000000000000000000000000000000000000000024000000000000000000000000000000000000000000008",
      "transactionHash": "0x4cfe82e524041a6df0011abdaf3a51b75fe7cbe622acbc6d1111420fbe37bedd",
      "transactionIndex": "0xe",
      "blockHash": "0xae523cf791b42ebaa5b11da602bf1ef5b66f06d1ce8adf7ffa6195887efb2de2",
      "blockNumber": "0x3a30921",
      "gasUsed": "0x28f67",
      "effectiveGasPrice": "0x1312d01",
      "blobGasUsed": "0x101d0",
      "from": "0x4965096bd8545b903c85530061bcc184c840306c",
      "to": "0x7e8b10d70864db8c5ab9a48ab1c5e782b23dda9d",
      "contractAddress": null
    },
    {
      "type": "0x2",
      "status": "0x1",
      "cumulativeGasUsed": "0x42c4b8",
      "logs": [
        {
          "address": "0x360e68faccca8ca495c1b759fd9eee466db9fb32",
          "topics": [
            "0xf208f4912782fd25c7f114ca3723a2d5dd6f3bcc3ac8db5af63baa85f711d5ec",
            "0x6f91ddd9bcd951400001e39c4d33eef23fb90c80d62a9bb3c967367e95432186",
            "0x0000000000000000000000003d1fa1fbaab354d40df7d3e8a74fb8e443919247"
          ],
          "data": "0xfffffffffffffffffffffffffffffffffffffffffffffffffffffffffff2764c00000000000000000000000000000000000000000000000000000000000d89b4ffffffffffffffffffffffffffffffffffffffffffffffff7538dcfb761800000000000000000000000000000000000000000000000000000000000000000000",
          "blockHash": "0xae523cf791b42ebaa5b11da602bf1ef5b66f06d1ce8adf7ffa6195887efb2de2",
          "blockNumber": "0x3a30921",
          "blockTimestamp": "0x6a155ead",
          "transactionHash": "0xa98c92c85eaec58ec383f0666b83f6af97710ec7a0b5d61f8c9d0420d8f37ff8",
          "transactionIndex": "0xf",
          "logIndex": "0x1c",
          "removed": false
        },
        {
          "address": "0x046eae536455fe1ee1b78e9c0e3e13d55edbe921",
          "topics": [
            "0xddf252ad1be2c89b69c2b068fc378daa952ba7f163c4a11628f55a4df523b3ef",
            "0x000000000000000000000000360e68faccca8ca495c1b759fd9eee466db9fb32",
            "0x0000000000000000000000004965096bd8545b903c85530061bcc184c840306c"
          ],
          "data": "0x0000000000000000000000000000000000000000000000008c2a687ce771fffe",
          "blockHash": "0xae523cf791b42ebaa5b11da602bf1ef5b66f06d1ce8adf7ffa6195887efb2de2",
          "blockNumber": "0x3a30921",
          "blockTimestamp": "0x6a155ead",
          "transactionHash": "0xa98c92c85eaec58ec383f0666b83f6af97710ec7a0b5d61f8c9d0420d8f37ff8",
          "transactionIndex": "0xf",
          "logIndex": "0x1d",
          "removed": false
        },
        {
          "address": "0xfe9049a12ef8e658f56d33734c0b0aeee80824af",
          "topics": [
            "0xddf252ad1be2c89b69c2b068fc378daa952ba7f163c4a11628f55a4df523b3ef",
            "0x000000000000000000000000360e68faccca8ca495c1b759fd9eee466db9fb32",
            "0x0000000000000000000000004965096bd8545b903c85530061bcc184c840306c"
          ],
          "data": "0x00000000000000000000000000000000000000000000000089686d847c2a4fed",
          "blockHash": "0xae523cf791b42ebaa5b11da602bf1ef5b66f06d1ce8adf7ffa6195887efb2de2",
          "blockNumber": "0x3a30921",
          "blockTimestamp": "0x6a155ead",
          "transactionHash": "0xa98c92c85eaec58ec383f0666b83f6af97710ec7a0b5d61f8c9d0420d8f37ff8",
          "transactionIndex": "0xf",
          "logIndex": "0x1e",
          "removed": false
        }
      ],
      "logsBloom": "0x00000000000000000000000000000000000400000000000000000000000000000000000000000000000000000800000000000000000000000000000000000000080000000000000001000008000000000000000000000000000000000000000000000000000008022000008000000000000000000000000020000010000000000200000001000000000000000000000000000010000000000000002000000000000004000002100000000000004000000000000001000000000000000000000000000002000000004400000000000000000004000000000000000000000000000000000000000000000000000000000004000000000000000000000000000008",
      "transactionHash": "0xa98c92c85eaec58ec383f0666b83f6af97710ec7a0b5d61f8c9d0420d8f37ff8",
      "transactionIndex": "0xf",
      "blockHash": "0xae523cf791b42ebaa5b11da602bf1ef5b66f06d1ce8adf7ffa6195887efb2de2",
      "blockNumber": "0x3a30921",
      "gasUsed": "0x24c44",
      "effectiveGasPrice": "0x1312d01",
      "blobGasUsed": "0x12110",
      "from": "0x4965096bd8545b903c85530061bcc184c840306c",
      "to": "0x3d1fa1fbaab354d40df7d3e8a74fb8e443919247",
      "contractAddress": null
    }
  ],
  "libraries": [],
  "pending": [],
  "returns": {},
  "timestamp": 1779785389017,
  "chain": 196,
  "commit": null
}