{
  "transactions": [
    {
      "hash": "0x2517fcd637384eb6e5c20571c311dbfed3ed283e337ef90c98be4e2fe7983b6e",
      "transactionType": "CALL",
      "contractName": null,
      "contractAddress": "0x046eae536455fe1ee1b78e9c0e3e13d55edbe921",
      "function": "approve(address,uint256)",
      "arguments": [
        "0x043b00Ae5d234e6c34107D60bFb663e7088a8744",
        "10000000000000000000"
      ],
      "transaction": {
        "from": "0x4965096bd8545b903c85530061bcc184c840306c",
        "to": "0x046eae536455fe1ee1b78e9c0e3e13d55edbe921",
        "gas": "0xf789",
        "value": "0x0",
        "input": "0x095ea7b3000000000000000000000000043b00ae5d234e6c34107d60bfb663e7088a87440000000000000000000000000000000000000000000000008ac7230489e80000",
        "nonce": "0xe",
        "chainId": "0xc4"
      },
      "additionalContracts": [],
      "isFixedGasLimit": false
    },
    {
      "hash": "0xb9f9362a51dd9f0d61bf9b3b599534f665abfc912ca47f3cd007f96e313dd30c",
      "transactionType": "CALL",
      "contractName": null,
      "contractAddress": "0x043b00ae5d234e6c34107d60bfb663e7088a8744",
      "function": "fundReserve((address,address,uint24,int24,address),uint256)",
      "arguments": [
        "(0x046EAE536455FE1EE1b78e9c0e3e13d55eDBe921, 0xFe9049a12EF8e658F56D33734C0B0aEEe80824aF, 3000, 60, 0x043b00Ae5d234e6c34107D60bFb663e7088a8744)",
        "10000000000000000000"
      ],
      "transaction": {
        "from": "0x4965096bd8545b903c85530061bcc184c840306c",
        "to": "0x043b00ae5d234e6c34107d60bfb663e7088a8744",
        "gas": "0x1a834",
        "value": "0x0",
        "input": "0x80663b49000000000000000000000000046eae536455fe1ee1b78e9c0e3e13d55edbe921000000000000000000000000fe9049a12ef8e658f56d33734c0b0aeee80824af0000000000000000000000000000000000000000000000000000000000000bb8000000000000000000000000000000000000000000000000000000000000003c000000000000000000000000043b00ae5d234e6c34107d60bfb663e7088a87440000000000000000000000000000000000000000000000008ac7230489e80000",
        "nonce": "0xf",
        "chainId": "0xc4"
      },
      "additionalContracts": [],
      "isFixedGasLimit": false
    }
  ],
  "receipts": [
    {
      "type": "0x2",
      "status": "0x1",
      "cumulativeGasUsed": "0x5c89f",
      "logs": [
        {
          "address": "0x046eae536455fe1ee1b78e9c0e3e13d55edbe921",
          "topics": [
            "0x8c5be1e5ebec7d5bd14f71427d1e84f3dd0314c0f7b2291e5b200ac8c7c3b925",
            "0x0000000000000000000000004965096bd8545b903c85530061bcc184c840306c",
            "0x000000000000000000000000043b00ae5d234e6c34107d60bfb663e7088a8744"
          ],
          "data": "0x0000000000000000000000000000000000000000000000008ac7230489e80000",
          "blockHash": "0x46c25d6153eb322672b8c581e10e76d67ac21f9ead743312087243659ba63549",
          "blockNumber": "0x3a30649",
          "blockTimestamp": "0x6a155bd5",
          "transactionHash": "0xb9f9362a51dd9f0d61bf9b3b599534f665abfc912ca47f3cd007f96e313dd30c",
          "transactionIndex": "0x4",
          "logIndex": "0x6",
          "removed": false
        }
      ],
      "logsBloom": "0x00000000000000000000000000000000000000000000000000000000000000000000000000000000000000000000000000000000000000000000000000200000000000000000000000000001000000000000000000000000000000000000000000000000000008002000000000000000000000000000000000000000000000000000000000000000000000000000000000000000000000000000002000000000020000000000100000000000004000000000000000000000000000000000000000000000000000014000000000000000000000000000000080000000000000000010000000000000000000000000000000000000000000000000000000000000",
      "transactionHash": "0xb9f9362a51dd9f0d61bf9b3b599534f665abfc912ca47f3cd007f96e313dd30c",
      "transactionIndex": "0x4",
      "blockHash": "0x46c25d6153eb322672b8c581e10e76d67ac21f9ead743312087243659ba63549",
      "blockNumber": "0x3a30649",
      "gasUsed": "0xb337",
      "effectiveGasPrice": "0x1312d01",
      "blobGasUsed": "0x9c40",
      "from": "0x4965096bd8545b903c85530061bcc184c840306c",
      "to": "0x046eae536455fe1ee1b78e9c0e3e13d55edbe921",
      "contractAddress": null
    },
    {
      "type": "0x2",
      "status": "0x1",
      "cumulativeGasUsed": "0x6fbbe",
      "logs": [
        {
          "address": "0x046eae536455fe1ee1b78e9c0e3e13d55edbe921",
          "topics": [
            "0xddf252ad1be2c89b69c2b068fc378daa952ba7f163c4a11628f55a4df523b3ef",
            "0x0000000000000000000000004965096bd8545b903c85530061bcc184c840306c",
            "0x000000000000000000000000043b00ae5d234e6c34107d60bfb663e7088a8744"
          ],
          "data": "0x0000000000000000000000000000000000000000000000008ac7230489e80000",
          "blockHash": "0x46c25d6153eb322672b8c581e10e76d67ac21f9ead743312087243659ba63549",
          "blockNumber": "0x3a30649",
          "blockTimestamp": "0x6a155bd5",
          "transactionHash": "0x2517fcd637384eb6e5c20571c311dbfed3ed283e337ef90c98be4e2fe7983b6e",
          "transactionIndex": "0x5",
          "logIndex": "0x7",
          "removed": false
        }
      ],
      "logsBloom": "0x00000000000000000000000000000000000000000000000000000000000000000000000000000000000000000000000000000000000000000000000000000000000000000000000000000009000000000000000000000000000000000000000000000000000008002000000000000000000000000000000000000010000000000000000000000000000000000000000000000000000000000000002000000000000000000000100000000000004000000000000000000000000000000000000000000002000000014000000000000000000000000000000080000000000000000000000000000000000000000000000000000000000000000000000000000000",
      "transactionHash": "0x2517fcd637384eb6e5c20571c311dbfed3ed283e337ef90c98be4e2fe7983b6e",
      "transactionIndex": "0x5",
      "blockHash": "0x46c25d6153eb322672b8c581e10e76d67ac21f9ead743312087243659ba63549",
      "blockNumber": "0x3a30649",
      "gasUsed": "0x1331f",
      "effectiveGasPrice": "0x1312d01",
      "blobGasUsed": "0xc670",
      "from": "0x4965096bd8545b903c85530061bcc184c840306c",
      "to": "0x043b00ae5d234e6c34107d60bfb663e7088a8744",
      "contractAddress": null
    }
  ],
  "libraries": [],
  "pending": [],
  "returns": {},
  "timestamp": 1779784659990,
  "chain": 196,
  "commit": null
}